S00D000050617274332E737265634D
S113000045C0000060C000005EC000005CC000008D
S11300105AC0000058C0000056C0000054C0000080
S113002052C0000050C000004EC000004CC0000090
S11300304AC000007EC0000046C0000044C000006A
S113004042C0000040C000003EC000003CC00000B0
S11300503AC0000038C0000036C0000034C00000C0
S113006032C0000030C000002EC000002CC00000D0
S11300702AC0000028C0000026C0000024C00000E0
S113008022C0000020C000001EC0000011241FBEBA
S1130090CFEFD0E4DEBFCDBF11E0A0E0B1E0E4E1FA
S11300A0F4E000E00BBF02C007900D92A431B10749
S11300B0D9F721E0A4E1B1E001C01D92AD31B2074E
S11300C0E1F71FD1A5C19CCF60931001709311017A
S11300D0809312019093130160931401709315019E
S11300E0809316019093170108958BE0809381000B
S11300F08DE790E0909389008093880082E080935C
S11301006F001092850010928400809110019091EC
S11301101101A0911201B0911301809314019093E5
S11301201501A0931601B09317018FB780688FBF94
S113013008951F920F920FB60F9211248F939F93DD
S1130140AF93BF938091140190911501A091160172
S1130150B09117010197A109B109809314019093FB
S11301601501A0931601B0931701892B8A2B8B2BB1
S113017099F481E08093180180911001909111010C
S1130180A0911201B0911301809314019093150171
S1130190A0931601B0931701BF91AF919F918F91D6
S11301A00F900FBE0F901F9018958FEE88B9000026
S11301B0309B29C0319B29C0329B29C0339B29C065
S11301C08FED88B90000309B26C0319B26C0329B3E
S11301D026C0339B26C08FEB88B90000309B23C018
S11301E0319B23C0329B23C0339B23C08FE788B944
S11301F00000309B20C0319B20C0329B20C0339B29
S113020020C080E0089581E3089584E3089587E39E
S113021008958AE2089582E3089585E3089588E3C2
S1130220089580E3089583E3089586E3089589E3B8
S1130230089583E2089581E4089582E4089583E4AF
S1130240089584E40895181619065CF008950000D2
S113025021503109E1F74F5F5F4F8417950719F477
S1130260089540E050E027E033E0F1CF10988BB9D7
S1130270119A0000119882E090E0E5CF0895813151
S113028018F48158F3CF08958155F0CF089584E68A
S113029090E0D9DF88E3EADF86E0E8DF8FE0E6DF9D
S11302A081E0E4DF8AE090E0CECF0895109A8BB924
S11302B0119A0000119881E090E0C5CF08951F9332
S11302C0CF93DF93FB019081992351F0EB0111E06F
S11302D0180FD5DF8991EADF812F98819111F7CF2B
S11302E0DF91CF911F91089580EB84B981E58CBD96
S11302F0789408958EBD2C980DB407FEFDCF2C9AEA
S113030008958FEF81B912B890E495B917B888B9F8
S11303108AB91BB86AE070E080E090E0D5DEE5DEE3
S1130320B6DFE2DF42DF80931B0190ED980F9A3035
S113033008F042C0853318F4803331F565C09091DC
S11303401901907F853321F491609093190134C091
S1130350863321F49260909319012EC0873321F4DF
S113036093609093190128C0883321F4946090938A
S1130370190122C0893321F49560909319011CC09E
S113038096609093190118C0909119019F70813360
S113039021F49061909319010FC0823321F490628B
S11303A09093190109C0833321F490639093190148
S11303B003C090649093190180911901982F92952C
S11303C09F7090931C018F7080931A016AE071E012
S11303D081E075DF80911C01805D68DF65E071E07C
S11303E089E06DDF80911A01805D60DF60E071E07B
S11303F080E165DF809119017DDF809118018823F8
S1130400E1F3109218018ECF90911901907FB8CF2B
S1070410F894FFCF8A
S113041475433A20315370643A205074726E3A2012
S107042401000000CF
S9030000FC
