:1000000045C0000060C000005EC000005CC0000091
:100010005AC0000058C0000056C0000054C0000084
:1000200052C0000050C000004EC000004CC0000094
:100030004AC000007EC0000046C0000044C000006E
:1000400042C0000040C000003EC000003CC00000B4
:100050003AC0000038C0000036C0000034C00000C4
:1000600032C0000030C000002EC000002CC00000D4
:100070002AC0000028C0000026C0000024C00000E4
:1000800022C0000020C000001EC0000011241FBEBE
:10009000CFEFD0E4DEBFCDBF11E0A0E0B1E0E0E201
:1000A000F4E000E00BBF02C007900D92A831B10749
:1000B000D9F721E0A8E1B1E001C01D92A232B20758
:1000C000E1F722D1ABC19CCF60931301709314016F
:1000D0008093150190931601609318017093190194
:1000E00080931A0190931B0108958BE08093810007
:1000F0008DE790E0909389008093880082E0809360
:100100006F001092850010928400809113019091ED
:100110001401A0911501B0911601809318019093DC
:100120001901A0931A01B0931B018FB780688FBF8C
:1001300008951F920F920FB60F9211248F939F93E1
:10014000AF93BF938091180190911901A0911A016A
:10015000B0911B010197A109B109809318019093F7
:100160001901A0931A01B0931B01892B8A2B8B2BA9
:1001700099F481E080931C01809113019091140106
:10018000A0911501B0911601809318019093190167
:10019000A0931A01B0931B01BF91AF919F918F91D2
:1001A0000F900FBE0F901F9018958FEE88B900002A
:1001B000309B29C0319B29C0329B29C0339B29C069
:1001C0008FED88B90000309B26C0319B26C0329B42
:1001D00026C0339B26C08FEB88B90000309B23C01C
:1001E000319B23C0329B23C0339B23C08FE788B948
:1001F0000000309B20C0319B20C0329B20C0339B2D
:1002000020C080E0089581E3089584E3089587E3A2
:1002100008958AE2089582E3089585E3089588E3C6
:10022000089580E3089583E3089586E3089589E3BC
:10023000089583E2089581E4089582E4089583E4B3
:10024000089584E40895181619065CF008950000D6
:1002500021503109E1F74F5F5F4F8417950719F47B
:10026000089540E050E027E033E0F1CF10988BB9DB
:10027000119A0000119882E090E0E5CF089581E0A6
:10028000F5CF089584E690E0DEDF88E3EFDF86E0D7
:10029000EDDF8FE0EBDF81E0E9DF8AE090E0D3CFB4
:1002A0000895109A8BB9119A0000119881E090E09E
:1002B000CACF0895813118F48158D8CF0895815557
:1002C000D5CF08951F93CF93DF93FB01908199239E
:1002D00051F0EB0111E0180FEDDF8991E2DF812F82
:1002E00098819111F7CFDF91CF911F91089580EB05
:1002F00084B981E58CBD789408958EBD2C980DB499
:1003000007FEFDCF2C9A08958FEF81B912B890E4C3
:1003100095B990EF97B99FE098B98AB91BB864EF87
:1003200071E080E090E0D0DEE0DEACDFE0DF3DDFDA
:100330008093200190ED980F9A3008F064C08533C7
:1003400018F4803331F566C090911D01907F85339C
:1003500021F4916090931D0134C0863321F49260A2
:1003600090931D012EC0873321F4936090931D015B
:1003700028C0883321F4946090931D0122C08933F2
:1003800021F4956090931D011CC0966090931D010F
:1003900018C090911D019F70813321F4906190935A
:1003A0001D010FC0823321F4906290931D0109C09A
:1003B000833321F4906390931D0103C09064909364
:1003C0001D0180911D01982F92959F70909321019E
:1003D0008F7080931F0153DF6CE071E081E072DF6A
:1003E00080912101805D5DDF66E071E089E06ADF78
:1003F00080911F01805D55DF60E071E080E162DF88
:1004000080911D017ADF80911C018823E1F3109215
:100410001C018DCF90911D01907FB7CFF894FFCF35
:1004200075433A2031005370643A20005074726E64
:080430003A2000010000000069
:00000001FF
