:1000000045C0000060C000005EC000005CC0000091
:100010005AC0000058C0000056C0000054C0000084
:1000200052C0000050C000004EC000004CC0000094
:100030004AC00000AFC0000046C0000044C000003D
:1000400042C0000040C000003EC000003CC00000B4
:100050003AC0000038C0000036C0000034C00000C4
:1000600032C0000030C000002EC000002CC00000D4
:100070002AC0000028C0000026C0000024C00000E4
:1000800022C0000020C000001EC0000011241FBEBE
:10009000CFEFD0E4DEBFCDBF11E0A0E0B1E0EAE4F5
:1000A000F4E000E00BBF02C007900D92A430B1074E
:1000B000D9F721E0A4E0B1E001C01D92A532B2075A
:1000C000E1F7A4D0C0C19CCF81309105B1F01CF400
:1000D000009741F0089582309105B9F08330910581
:1000E000E1F0089580B1809581708093240180B102
:1000F000809582708093230108958091220183303E
:1001000098F48F5F809322010895809122018823C3
:1001100059F0815080932201089581E0909121014E
:10012000911180E080932101089560930001709304
:100130000101809302019093030160931A0170936F
:100140001B0180931C0190931D0108958BE0809307
:1001500081008DE790E0909389008093880082E091
:1001600080936F00109285001092840080910001AE
:1001700090910101A0910201B091030180931A01B5
:1001800090931B01A0931C01B0931D018FB7806851
:100190008FBF08951F920F920FB60F9211248F9365
:1001A0009F93AF93BF9380911A0190911B01A091EF
:1001B0001C01B0911D010197A109B10980931A0199
:1001C00090931B01A0931C01B0931D01892B8A2BD6
:1001D0008B2B99F481E080931E0180910001909116
:1001E0000101A0910201B091030180931A01909343
:1001F0001B01A0931C01B0931D01BF91AF919F9172
:100200008F910F900FBE0F901F901895CF93DF9393
:1002100000D000D0CDB7DEB711B88FEF82B984B966
:1002200015B80F2EF4E6CF2ED12CE12CF12CF02DA9
:1002300052E340E030E020E002C06B017C01652F1A
:10024000742F832F922FA7019601DBD05C2D4D2DAB
:100250003E2D2F2D611571058105910571F7DD2466
:10026000EE24FF2462E370E080E090E0A7019601B5
:10027000C8D049015A0164E670E080E090E0A7012F
:100280009601BFD0AFE0B1E0BA83A983E4E0F1E02A
:10029000FC83EB838FEF8C9311968D929D92AD92A0
:1002A000BC92149715968D929D92AD92BC92189720
:1002B00064E670E01A967C936E931997808321838D
:1002C000328343835483258336834783508788EC66
:1002D00091E092878187C701B60127DF37DF10924F
:1002E00020017E0185E0E80EF11CDE0111966D0112
:1002F000F601019111916F01D80115964D915D9113
:100300006D917C91189711968D919D910D90BC9156
:10031000A02D481759076A077B0780F0F8018081F4
:100320000184F285E02D082E000C990B0995D80167
:100330008C93F8011582168217821086F801858148
:100340009681A781B0850196A11DB11D85839683F5
:10035000A783B087CE14DF0459F680911E0188234D
:10036000E1F310921E01C1CF5B9A599898E05A9818
:10037000282F21708695222311F0589A01C0589891
:100380005A9A9150A1F78BB18A608BB91BB8089526
:100390008130910571F01CF4009741F0089582308E
:1003A0009105A9F083309105E9F0089580E0DCCF54
:1003B0000895809120018F3F21F0880F80932001C4
:1003C00002C01092200180912001CECF089580912B
:1003D0002001882319F086958093200180912001C7
:1003E000C3CF089580912001803F21F48FE0809356
:1003F000200103C080EF8093200180912001B4CFC1
:100400000895A1E21A2EAA1BBB1BFD010DC0AA1F55
:10041000BB1FEE1FFF1FA217B307E407F50720F06D
:10042000A21BB30BE40BF50B661F771F881F991FE8
:100430001A9469F760957095809590959B01AC0131
:0A044000BD01CF010895F894FFCF2D
:04044A0001000000AD
:00000001FF
