S00D000050617274322E737265634E
S113000045C0000053C0000051C000004FC00000B4
S11300104DC000004BC0000049C0000047C00000B4
S113002045C0000043C0000041C000003FC00000C4
S11300303DC000003BC0000039C0000037C00000D4
S113004035C0000033C0000031C000002FC00000E4
S11300502DC000002BC0000029C0000027C00000F4
S113006025C0000023C0000021C000001FC0000004
S11300701DC000001BC0000019C0000017C0000014
S113008015C0000013C0000011C0000011241FBEE1
S1130090CFEFD0E4DEBFCDBF21E0A0E0B1E001C0EE
S11300A01D92A230B207E1F766D0C4C0A9CF8FEE8B
S11300B088B90000309B29C0319B29C0329B29C0DC
S11300C0339B29C08FED88B90000309B26C0319B3B
S11300D026C0329B26C0339B26C08FEB88B9000014
S11300E0309B23C0319B23C0329B23C0339B23C04E
S11300F08FE788B90000309B20C0319B20C0329B21
S113010020C0339B20C080E0089581E3089584E3F8
S1130110089587E308958AE2089582E3089585E3C4
S1130120089588E3089580E3089583E3089586E3BA
S1130130089589E3089583E2089581E4089582E4AB
S1130140089583E4089584E408958FEF81B912B883
S11301509FEB94B990E495B91AB88BB981E58CBD3D
S11301608FB780688FBF08958EBD2C9A0DB407FE9B
S1130170FDCF2C98089517B88FEF88B9E6DF97DF85
S11301808093010190ED980F9A3008F04BC08533AD
S113019018F4803351F54AC090910001907F9093F8
S11301A00001853321F49160909300013BC08633B4
S11301B021F492609093000135C0873321F4936059
S11301C0909300012FC0883321F494609093000130
S11301D029C0893321F495609093000123C08033B2
S11301E009F59660909300011DC0909100019F70E5
S11301F0813321F490619093000114C0823321F47F
S11302009062909300010EC0833321F49063909325
S1130210000108C0843319F09093000103C0906476
S113022090930001809100019FDFA9CF909100017C
S10B0230907FD7CFF894FFCFB3
S9030000FC
